{
  "contractName": "CryptoTrust",
  "abi": [
    {
      "inputs": [],
      "stateMutability": "nonpayable",
      "type": "constructor"
    },
    {
      "anonymous": false,
      "inputs": [
        {
          "indexed": false,
          "internalType": "address",
          "name": "addr",
          "type": "address"
        },
        {
          "indexed": false,
          "internalType": "uint256",
          "name": "amount",
          "type": "uint256"
        },
        {
          "indexed": false,
          "internalType": "uint256",
          "name": "balance",
          "type": "uint256"
        }
      ],
      "name": "LogFundingAdded",
      "type": "event"
    },
    {
      "anonymous": false,
      "inputs": [
        {
          "indexed": false,
          "internalType": "uint256",
          "name": "amount",
          "type": "uint256"
        }
      ],
      "name": "LogFundingAddedToAll",
      "type": "event"
    },
    {
      "anonymous": false,
      "inputs": [
        {
          "indexed": false,
          "internalType": "address",
          "name": "addr",
          "type": "address"
        },
        {
          "indexed": false,
          "internalType": "uint256",
          "name": "amount",
          "type": "uint256"
        },
        {
          "indexed": false,
          "internalType": "uint256",
          "name": "balance",
          "type": "uint256"
        }
      ],
      "name": "LogWithdrawal",
      "type": "event"
    },
    {
      "inputs": [],
      "name": "addressesLength",
      "outputs": [
        {
          "internalType": "uint256",
          "name": "",
          "type": "uint256"
        }
      ],
      "stateMutability": "view",
      "type": "function",
      "constant": true
    },
    {
      "inputs": [
        {
          "internalType": "address payable",
          "name": "walletAddress",
          "type": "address"
        },
        {
          "internalType": "string",
          "name": "firstName",
          "type": "string"
        },
        {
          "internalType": "string",
          "name": "lastName",
          "type": "string"
        },
        {
          "internalType": "uint256",
          "name": "releaseTime",
          "type": "uint256"
        },
        {
          "internalType": "uint256",
          "name": "balance",
          "type": "uint256"
        }
      ],
      "name": "addFundee",
      "outputs": [],
      "stateMutability": "nonpayable",
      "type": "function"
    },
    {
      "inputs": [],
      "name": "balanceOf",
      "outputs": [
        {
          "internalType": "uint256",
          "name": "",
          "type": "uint256"
        }
      ],
      "stateMutability": "view",
      "type": "function",
      "constant": true
    },
    {
      "inputs": [
        {
          "internalType": "address",
          "name": "walletAddress",
          "type": "address"
        }
      ],
      "name": "deposit",
      "outputs": [],
      "stateMutability": "payable",
      "type": "function",
      "payable": true
    },
    {
      "inputs": [],
      "name": "depositAll",
      "outputs": [],
      "stateMutability": "payable",
      "type": "function",
      "payable": true
    },
    {
      "inputs": [
        {
          "internalType": "address",
          "name": "walletAddress",
          "type": "address"
        }
      ],
      "name": "getBalance",
      "outputs": [
        {
          "internalType": "uint256",
          "name": "",
          "type": "uint256"
        }
      ],
      "stateMutability": "view",
      "type": "function",
      "constant": true
    },
    {
      "inputs": [
        {
          "internalType": "address",
          "name": "walletAddress",
          "type": "address"
        }
      ],
      "name": "canWithdraw",
      "outputs": [
        {
          "internalType": "bool",
          "name": "",
          "type": "bool"
        }
      ],
      "stateMutability": "nonpayable",
      "type": "function"
    },
    {
      "inputs": [
        {
          "internalType": "address payable",
          "name": "walletAddress",
          "type": "address"
        }
      ],
      "name": "withdraw",
      "outputs": [],
      "stateMutability": "payable",
      "type": "function",
      "payable": true
    }
  ],
  "bytecode": "0x608060405234801561001057600080fd5b50336000806101000a81548173ffffffffffffffffffffffffffffffffffffffff021916908373ffffffffffffffffffffffffffffffffffffffff160217905550611729806100606000396000f3fe60806040526004361061007b5760003560e01c8063ce4668131161004e578063ce4668131461012f578063de5f626814610158578063f340fa0114610162578063f8b2cb4f1461017e5761007b565b80630150b5301461008057806319262d30146100ab57806351cff8d9146100e8578063722713f714610104575b600080fd5b34801561008c57600080fd5b506100956101bb565b6040516100a29190610ea2565b60405180910390f35b3480156100b757600080fd5b506100d260048036038101906100cd9190610f2f565b6101c5565b6040516100df9190610f77565b60405180910390f35b61010260048036038101906100fd9190610fd0565b610439565b005b34801561011057600080fd5b50610119610788565b6040516101269190610ea2565b60405180910390f35b34801561013b57600080fd5b506101566004803603810190610151919061116f565b610790565b005b6101606109dd565b005b61017c60048036038101906101779190610f2f565b610b26565b005b34801561018a57600080fd5b506101a560048036038101906101a09190610f2f565b610bbd565b6040516101b29190610ea2565b60405180910390f35b6000600154905090565b600080600360008473ffffffffffffffffffffffffffffffffffffffff1673ffffffffffffffffffffffffffffffffffffffff1681526020019081526020016000206040518060c00160405290816000820160009054906101000a900473ffffffffffffffffffffffffffffffffffffffff1673ffffffffffffffffffffffffffffffffffffffff1673ffffffffffffffffffffffffffffffffffffffff16815260200160018201805461027890611251565b80601f01602080910402602001604051908101604052809291908181526020018280546102a490611251565b80156102f15780601f106102c6576101008083540402835291602001916102f1565b820191906000526020600020905b8154815290600101906020018083116102d457829003601f168201915b5050505050815260200160028201805461030a90611251565b80601f016020809104026020016040519081016040528092919081815260200182805461033690611251565b80156103835780601f1061035857610100808354040283529160200191610383565b820191906000526020600020905b81548152906001019060200180831161036657829003601f168201915b5050505050815260200160038201548152602001600482015481526020016005820160009054906101000a900460ff1615151515815250509050806060015142111561042e576001600360008573ffffffffffffffffffffffffffffffffffffffff1673ffffffffffffffffffffffffffffffffffffffff16815260200190815260200160002060050160006101000a81548160ff0219169083151502179055506001915050610434565b60009150505b919050565b6000600360008373ffffffffffffffffffffffffffffffffffffffff1673ffffffffffffffffffffffffffffffffffffffff1681526020019081526020016000206040518060c00160405290816000820160009054906101000a900473ffffffffffffffffffffffffffffffffffffffff1673ffffffffffffffffffffffffffffffffffffffff1673ffffffffffffffffffffffffffffffffffffffff1681526020016001820180546104eb90611251565b80601f016020809104026020016040519081016040528092919081815260200182805461051790611251565b80156105645780601f1061053957610100808354040283529160200191610564565b820191906000526020600020905b81548152906001019060200180831161054757829003601f168201915b5050505050815260200160028201805461057d90611251565b80601f01602080910402602001604051908101604052809291908181526020018280546105a990611251565b80156105f65780601f106105cb576101008083540402835291602001916105f6565b820191906000526020600020905b8154815290600101906020018083116105d957829003601f168201915b5050505050815260200160038201548152602001600482015481526020016005820160009054906101000a900460ff1615151515815250509050806000015173ffffffffffffffffffffffffffffffffffffffff163373ffffffffffffffffffffffffffffffffffffffff16146106a2576040517f08c379a0000000000000000000000000000000000000000000000000000000008152600401610699906112e0565b60405180910390fd5b600115158160a001511515146106ed576040517f08c379a00000000000000000000000000000000000000000000000000000000081526004016106e490611372565b60405180910390fd5b6106f682610c09565b806000015173ffffffffffffffffffffffffffffffffffffffff166108fc82608001519081150290604051600060405180830381858888f19350505050158015610744573d6000803e3d6000fd5b507ff9226daf630542048a23086c6af599511aac100ec8f532793cc9697d061bed7e8282608001514760405161077c939291906113f1565b60405180910390a15050565b600047905090565b60008054906101000a900473ffffffffffffffffffffffffffffffffffffffff1673ffffffffffffffffffffffffffffffffffffffff163373ffffffffffffffffffffffffffffffffffffffff161461081e576040517f08c379a000000000000000000000000000000000000000000000000000000000815260040161081590611474565b60405180910390fd5b6040518060c001604052808673ffffffffffffffffffffffffffffffffffffffff16815260200185815260200184815260200183815260200182815260200160001515815250600360008773ffffffffffffffffffffffffffffffffffffffff1673ffffffffffffffffffffffffffffffffffffffff16815260200190815260200160002060008201518160000160006101000a81548173ffffffffffffffffffffffffffffffffffffffff021916908373ffffffffffffffffffffffffffffffffffffffff1602179055506020820151816001019080519060200190610906929190610da6565b506040820151816002019080519060200190610923929190610da6565b50606082015181600301556080820151816004015560a08201518160050160006101000a81548160ff0219169083151502179055509050506001600081548092919061096e906114c3565b91905055506002859080600181540180825580915050600190039060005260206000200160009091909190916101000a81548173ffffffffffffffffffffffffffffffffffffffff021916908373ffffffffffffffffffffffffffffffffffffffff1602179055505050505050565b600060015411610a22576040517f08c379a0000000000000000000000000000000000000000000000000000000008152600401610a199061157e565b60405180910390fd5b600060015434610a3291906115cd565b905060005b600154811015610aeb57816003600060028481548110610a5a57610a596115fe565b5b9060005260206000200160009054906101000a900473ffffffffffffffffffffffffffffffffffffffff1673ffffffffffffffffffffffffffffffffffffffff1673ffffffffffffffffffffffffffffffffffffffff1681526020019081526020016000206004016000828254610ad1919061162d565b925050819055508080610ae3906114c3565b915050610a37565b507f94ac742875067c7acbd15348bc493a520599d3020f2096a72885cef1233d16d034604051610b1b9190610ea2565b60405180910390a150565b34600360008373ffffffffffffffffffffffffffffffffffffffff1673ffffffffffffffffffffffffffffffffffffffff1681526020019081526020016000206004016000828254610b78919061162d565b925050819055507f887e845bd41809be612596ebbb5553557ab7b179548e35cc85fc96f17fafb705813447604051610bb293929190611692565b60405180910390a150565b6000600360008373ffffffffffffffffffffffffffffffffffffffff1673ffffffffffffffffffffffffffffffffffffffff168152602001908152602001600020600401549050919050565b600360008273ffffffffffffffffffffffffffffffffffffffff1673ffffffffffffffffffffffffffffffffffffffff168152602001908152602001600020600080820160006101000a81549073ffffffffffffffffffffffffffffffffffffffff0219169055600182016000610c809190610e2c565b600282016000610c909190610e2c565b600382016000905560048201600090556005820160006101000a81549060ff0219169055505060005b600154811015610d8a578173ffffffffffffffffffffffffffffffffffffffff1660028281548110610cee57610ced6115fe565b5b9060005260206000200160009054906101000a900473ffffffffffffffffffffffffffffffffffffffff1673ffffffffffffffffffffffffffffffffffffffff161415610d775760028181548110610d4957610d486115fe565b5b9060005260206000200160006101000a81549073ffffffffffffffffffffffffffffffffffffffff02191690555b8080610d82906114c3565b915050610cb9565b5060016000815480929190610d9e906116c9565b919050555050565b828054610db290611251565b90600052602060002090601f016020900481019282610dd45760008555610e1b565b82601f10610ded57805160ff1916838001178555610e1b565b82800160010185558215610e1b579182015b82811115610e1a578251825591602001919060010190610dff565b5b509050610e289190610e6c565b5090565b508054610e3890611251565b6000825580601f10610e4a5750610e69565b601f016020900490600052602060002090810190610e689190610e6c565b5b50565b5b80821115610e85576000816000905550600101610e6d565b5090565b6000819050919050565b610e9c81610e89565b82525050565b6000602082019050610eb76000830184610e93565b92915050565b6000604051905090565b600080fd5b600080fd5b600073ffffffffffffffffffffffffffffffffffffffff82169050919050565b6000610efc82610ed1565b9050919050565b610f0c81610ef1565b8114610f1757600080fd5b50565b600081359050610f2981610f03565b92915050565b600060208284031215610f4557610f44610ec7565b5b6000610f5384828501610f1a565b91505092915050565b60008115159050919050565b610f7181610f5c565b82525050565b6000602082019050610f8c6000830184610f68565b92915050565b6000610f9d82610ed1565b9050919050565b610fad81610f92565b8114610fb857600080fd5b50565b600081359050610fca81610fa4565b92915050565b600060208284031215610fe657610fe5610ec7565b5b6000610ff484828501610fbb565b91505092915050565b600080fd5b600080fd5b6000601f19601f8301169050919050565b7f4e487b7100000000000000000000000000000000000000000000000000000000600052604160045260246000fd5b61105082611007565b810181811067ffffffffffffffff8211171561106f5761106e611018565b5b80604052505050565b6000611082610ebd565b905061108e8282611047565b919050565b600067ffffffffffffffff8211156110ae576110ad611018565b5b6110b782611007565b9050602081019050919050565b82818337600083830152505050565b60006110e66110e184611093565b611078565b90508281526020810184848401111561110257611101611002565b5b61110d8482856110c4565b509392505050565b600082601f83011261112a57611129610ffd565b5b813561113a8482602086016110d3565b91505092915050565b61114c81610e89565b811461115757600080fd5b50565b60008135905061116981611143565b92915050565b600080600080600060a0868803121561118b5761118a610ec7565b5b600061119988828901610fbb565b955050602086013567ffffffffffffffff8111156111ba576111b9610ecc565b5b6111c688828901611115565b945050604086013567ffffffffffffffff8111156111e7576111e6610ecc565b5b6111f388828901611115565b93505060606112048882890161115a565b92505060806112158882890161115a565b9150509295509295909350565b7f4e487b7100000000000000000000000000000000000000000000000000000000600052602260045260246000fd5b6000600282049050600182168061126957607f821691505b6020821081141561127d5761127c611222565b5b50919050565b600082825260208201905092915050565b7f596f75206d75737420626520746865206b696420746f20776974686472617700600082015250565b60006112ca601f83611283565b91506112d582611294565b602082019050919050565b600060208201905081810360008301526112f9816112bd565b9050919050565b7f596f7520617265206e6f742061626c6520746f2077697468647261772061742060008201527f746869732074696d650000000000000000000000000000000000000000000000602082015250565b600061135c602983611283565b915061136782611300565b604082019050919050565b6000602082019050818103600083015261138b8161134f565b9050919050565b6000819050919050565b60006113b76113b26113ad84610ed1565b611392565b610ed1565b9050919050565b60006113c98261139c565b9050919050565b60006113db826113be565b9050919050565b6113eb816113d0565b82525050565b600060608201905061140660008301866113e2565b6114136020830185610e93565b6114206040830184610e93565b949350505050565b7f4f6e6c7920746865206f776e65722063616e206164642066756e646565730000600082015250565b600061145e601e83611283565b915061146982611428565b602082019050919050565b6000602082019050818103600083015261148d81611451565b9050919050565b7f4e487b7100000000000000000000000000000000000000000000000000000000600052601160045260246000fd5b60006114ce82610e89565b91507fffffffffffffffffffffffffffffffffffffffffffffffffffffffffffffffff82141561150157611500611494565b5b600182019050919050565b7f4d7573742068617665206174206c65617374206f6e652066756e64656520616460008201527f6465640000000000000000000000000000000000000000000000000000000000602082015250565b6000611568602383611283565b91506115738261150c565b604082019050919050565b600060208201905081810360008301526115978161155b565b9050919050565b7f4e487b7100000000000000000000000000000000000000000000000000000000600052601260045260246000fd5b60006115d882610e89565b91506115e383610e89565b9250826115f3576115f261159e565b5b828204905092915050565b7f4e487b7100000000000000000000000000000000000000000000000000000000600052603260045260246000fd5b600061163882610e89565b915061164383610e89565b9250827fffffffffffffffffffffffffffffffffffffffffffffffffffffffffffffffff0382111561167857611677611494565b5b828201905092915050565b61168c81610ef1565b82525050565b60006060820190506116a76000830186611683565b6116b46020830185610e93565b6116c16040830184610e93565b949350505050565b60006116d482610e89565b915060008214156116e8576116e7611494565b5b60018203905091905056fea2646970667358221220c388fd127d1c3bd3401d690b3136d2e802e4797061d12be71237ac3174779ac864736f6c634300080b0033",
  "immutableReferences": {},
  "source": "// SPDX-License-Identifier: GPL-3.0\n\npragma solidity >=0.7.0 <0.9.0;\n\ncontract CryptoTrust {\n    address owner;\n\n    event LogWithdrawal(address addr, uint256 amount, uint256 balance);\n    event LogFundingAdded(address addr, uint256 amount, uint256 balance);\n    event LogFundingAddedToAll(uint256 amount);\n\n    constructor() {\n        owner = msg.sender;\n    }\n\n    struct Fundee {\n        address payable walletAddress;\n        string firstName;\n        string lastName;\n        uint256 releaseTime;\n        uint256 balance;\n        bool canWithdraw;\n    }\n\n    uint256 totalFundees;\n    address[] addresses;\n    mapping(address => Fundee) fundees;\n\n    modifier onlyOwner() {\n        require(msg.sender == owner, \"Only the owner can add fundees\");\n        _;\n    }\n\n    function addressesLength() public view returns (uint256) {\n        return totalFundees;\n    }\n\n    function addFundee(\n        address payable walletAddress,\n        string memory firstName,\n        string memory lastName,\n        uint256 releaseTime,\n        uint256 balance\n    ) public onlyOwner {\n        fundees[walletAddress] = Fundee(\n            walletAddress,\n            firstName,\n            lastName,\n            releaseTime,\n            balance,\n            false\n        );\n        totalFundees++;\n        addresses.push(walletAddress);\n    }\n\n    function balanceOf() public view returns (uint256) {\n        return address(this).balance;\n    }\n\n    function deposit(address walletAddress) public payable {\n        fundees[walletAddress].balance += msg.value;\n\n        emit LogFundingAdded(walletAddress, msg.value, address(this).balance);\n    }\n\n    function depositAll() public payable {\n        require(totalFundees > 0, \"Must have at least one fundee added\");\n        uint256 shareAmount = msg.value / totalFundees;\n\n        // add split amount to each fundee\n        for (uint256 i = 0; i < totalFundees; i++) {\n            fundees[addresses[i]].balance += shareAmount;\n        }\n\n        emit LogFundingAddedToAll(msg.value);\n    }\n\n    function getBalance(address walletAddress) public view returns (uint256) {\n        return fundees[walletAddress].balance;\n    }\n\n    function canWithdraw(address walletAddress) public returns (bool) {\n        Fundee memory fundee = fundees[walletAddress];\n\n        if (block.timestamp > fundee.releaseTime) {\n            fundees[walletAddress].canWithdraw = true;\n            return true;\n        } else {\n            return false;\n        }\n    }\n\n    function removeAddress(address walletAddress) private {\n        delete fundees[walletAddress];\n        for (uint256 i = 0; i < totalFundees; i++) {\n            if (addresses[i] == walletAddress) {\n                delete addresses[i];\n            }\n        }\n        totalFundees--;\n    }\n\n    function withdraw(address payable walletAddress) public payable {\n        Fundee memory fundee = fundees[walletAddress];\n        require(\n            msg.sender == fundee.walletAddress,\n            \"You must be the kid to withdraw\"\n        );\n        require(\n            fundee.canWithdraw == true,\n            \"You are not able to withdraw at this time\"\n        );\n\n        removeAddress(walletAddress);\n        fundee.walletAddress.transfer(fundee.balance);\n        emit LogWithdrawal(\n            walletAddress,\n            fundee.balance,\n            address(this).balance\n        );\n    }\n}\n",
  "sourcePath": "/Users/traviswickham/Development/next-dapp/contracts/CryptoTrustFund.sol",
  "compiler": {
    "name": "solc",
    "version": "0.8.11+commit.d7f03943.Emscripten.clang"
  },
  "schemaVersion": "3.4.4",
  "updatedAt": "2022-05-13T01:39:27.297Z",
  "networkType": "ethereum",
  "devdoc": {
    "kind": "dev",
    "methods": {},
    "version": 1
  },
  "userdoc": {
    "kind": "user",
    "methods": {},
    "version": 1
  }
}