{
  "contractName": "EyedentityRegistry",
  "abi": [
    {
      "inputs": [],
      "payable": false,
      "stateMutability": "nonpayable",
      "type": "constructor"
    },
    {
      "anonymous": false,
      "inputs": [
        {
          "indexed": true,
          "internalType": "address",
          "name": "entity",
          "type": "address"
        }
      ],
      "name": "EntityRegistered",
      "type": "event"
    },
    {
      "constant": true,
      "inputs": [
        {
          "internalType": "address",
          "name": "",
          "type": "address"
        }
      ],
      "name": "authorized",
      "outputs": [
        {
          "internalType": "bool",
          "name": "",
          "type": "bool"
        }
      ],
      "payable": false,
      "stateMutability": "view",
      "type": "function"
    },
    {
      "constant": false,
      "inputs": [
        {
          "internalType": "address",
          "name": "_address",
          "type": "address"
        }
      ],
      "name": "register",
      "outputs": [],
      "payable": false,
      "stateMutability": "nonpayable",
      "type": "function"
    },
    {
      "constant": true,
      "inputs": [
        {
          "internalType": "address",
          "name": "_address",
          "type": "address"
        }
      ],
      "name": "isAuthorized",
      "outputs": [
        {
          "internalType": "bool",
          "name": "",
          "type": "bool"
        }
      ],
      "payable": false,
      "stateMutability": "view",
      "type": "function"
    }
  ],
  "bytecode": "0x608060405234801561001057600080fd5b506100203361002560201b60201c565b6100c2565b60016000808373ffffffffffffffffffffffffffffffffffffffff1673ffffffffffffffffffffffffffffffffffffffff16815260200190815260200160002060006101000a81548160ff0219169083151502179055508073ffffffffffffffffffffffffffffffffffffffff167f29218c12a6d99d8cbc85b5cdb5bf1a42bbd7744aa4f540990cece1688bfa7aef60405160405180910390a250565b610289806100d16000396000f3fe608060405234801561001057600080fd5b50600436106100415760003560e01c80634420e48614610046578063b91816111461008a578063fe9fbb80146100e6575b600080fd5b6100886004803603602081101561005c57600080fd5b81019080803573ffffffffffffffffffffffffffffffffffffffff169060200190929190505050610142565b005b6100cc600480360360208110156100a057600080fd5b81019080803573ffffffffffffffffffffffffffffffffffffffff1690602001909291905050506101df565b604051808215151515815260200191505060405180910390f35b610128600480360360208110156100fc57600080fd5b81019080803573ffffffffffffffffffffffffffffffffffffffff1690602001909291905050506101ff565b604051808215151515815260200191505060405180910390f35b60016000808373ffffffffffffffffffffffffffffffffffffffff1673ffffffffffffffffffffffffffffffffffffffff16815260200190815260200160002060006101000a81548160ff0219169083151502179055508073ffffffffffffffffffffffffffffffffffffffff167f29218c12a6d99d8cbc85b5cdb5bf1a42bbd7744aa4f540990cece1688bfa7aef60405160405180910390a250565b60006020528060005260406000206000915054906101000a900460ff1681565b60008060008373ffffffffffffffffffffffffffffffffffffffff1673ffffffffffffffffffffffffffffffffffffffff16815260200190815260200160002060009054906101000a900460ff16905091905056fea265627a7a72315820a821ef208fef2e0cd4cf24a94127500650ee1f6190dc02e4aa68552fcd31800164736f6c63430005100032",
  "source": "pragma solidity >=0.5.0;\n\ncontract EyedentityRegistry {\n    mapping(address => bool) public authorized;\n\n    event EntityRegistered(address indexed entity);\n\n    constructor() public {\n        register(msg.sender);\n    }\n\n    function register(address _address) public {\n        authorized[_address] = true;\n        emit EntityRegistered(_address);\n    }\n\n    function isAuthorized(address _address) public view returns (bool) {\n        return authorized[_address];\n    }\n}\n",
  "sourcePath": "/Users/traviswickham/Development/next-dapp/contracts/EyedentityRegistry.sol",
  "compiler": {
    "name": "solc",
    "version": "0.5.16+commit.9c3226ce.Emscripten.clang"
  },
  "schemaVersion": "3.4.3",
  "updatedAt": "2021-12-20T02:52:12.733Z",
  "devdoc": {
    "methods": {}
  },
  "userdoc": {
    "methods": {}
  }
}