{
  "contractName": "LiquidityPool",
  "abi": [
    {
      "anonymous": false,
      "inputs": [
        {
          "indexed": true,
          "internalType": "address",
          "name": "provider",
          "type": "address"
        },
        {
          "indexed": false,
          "internalType": "uint256",
          "name": "amountAdded",
          "type": "uint256"
        },
        {
          "indexed": false,
          "internalType": "uint256",
          "name": "sharesCreated",
          "type": "uint256"
        }
      ],
      "name": "LiquidityProvided",
      "type": "event"
    },
    {
      "anonymous": false,
      "inputs": [
        {
          "indexed": true,
          "internalType": "address",
          "name": "provider",
          "type": "address"
        },
        {
          "indexed": false,
          "internalType": "uint256",
          "name": "amountRemoved",
          "type": "uint256"
        },
        {
          "indexed": false,
          "internalType": "uint256",
          "name": "sharesRemoved",
          "type": "uint256"
        }
      ],
      "name": "LiquidityRemove",
      "type": "event"
    },
    {
      "anonymous": false,
      "inputs": [
        {
          "indexed": true,
          "internalType": "address",
          "name": "borrower",
          "type": "address"
        },
        {
          "indexed": false,
          "internalType": "uint256",
          "name": "amountRepaid",
          "type": "uint256"
        }
      ],
      "name": "LoanCompleted",
      "type": "event"
    },
    {
      "anonymous": false,
      "inputs": [
        {
          "indexed": true,
          "internalType": "address",
          "name": "borrower",
          "type": "address"
        },
        {
          "indexed": true,
          "internalType": "address",
          "name": "payee",
          "type": "address"
        },
        {
          "indexed": false,
          "internalType": "uint256",
          "name": "amountRepaid",
          "type": "uint256"
        }
      ],
      "name": "LoanRepayed",
      "type": "event"
    },
    {
      "inputs": [],
      "name": "FEE",
      "outputs": [
        {
          "internalType": "uint256",
          "name": "",
          "type": "uint256"
        }
      ],
      "stateMutability": "view",
      "type": "function"
    },
    {
      "inputs": [
        {
          "internalType": "address",
          "name": "",
          "type": "address"
        }
      ],
      "name": "borrowerDebt",
      "outputs": [
        {
          "internalType": "uint256",
          "name": "",
          "type": "uint256"
        }
      ],
      "stateMutability": "view",
      "type": "function"
    },
    {
      "inputs": [],
      "name": "isLocked",
      "outputs": [
        {
          "internalType": "bool",
          "name": "",
          "type": "bool"
        }
      ],
      "stateMutability": "view",
      "type": "function"
    },
    {
      "inputs": [
        {
          "internalType": "address",
          "name": "",
          "type": "address"
        }
      ],
      "name": "providerShares",
      "outputs": [
        {
          "internalType": "uint256",
          "name": "",
          "type": "uint256"
        }
      ],
      "stateMutability": "view",
      "type": "function"
    },
    {
      "inputs": [],
      "name": "shares",
      "outputs": [
        {
          "internalType": "uint256",
          "name": "",
          "type": "uint256"
        }
      ],
      "stateMutability": "view",
      "type": "function"
    },
    {
      "inputs": [],
      "name": "addLiquidity",
      "outputs": [],
      "stateMutability": "payable",
      "type": "function"
    },
    {
      "inputs": [],
      "name": "getShares",
      "outputs": [
        {
          "internalType": "uint256",
          "name": "",
          "type": "uint256"
        }
      ],
      "stateMutability": "view",
      "type": "function"
    },
    {
      "inputs": [
        {
          "internalType": "uint256",
          "name": "_liquidityProportion",
          "type": "uint256"
        }
      ],
      "name": "sharesAfterDeposit",
      "outputs": [
        {
          "internalType": "uint256",
          "name": "_shares",
          "type": "uint256"
        }
      ],
      "stateMutability": "view",
      "type": "function"
    }
  ],
  "bytecode": "0x608060405234801561001057600080fd5b50610932806100206000396000f3fe60806040526004361061007b5760003560e01c8063a4e2d6341161004e578063a4e2d63414610162578063c57981b51461018d578063d73fe0aa146101b8578063e8078d94146101e35761007b565b806303314efa146100805780633add60ab146100ab578063688e86b7146100e85780638383682514610125575b600080fd5b34801561008c57600080fd5b506100956101ed565b6040516100a29190610517565b60405180910390f35b3480156100b757600080fd5b506100d260048036038101906100cd9190610595565b6101f3565b6040516100df9190610517565b60405180910390f35b3480156100f457600080fd5b5061010f600480360381019061010a9190610595565b61020b565b60405161011c9190610517565b60405180910390f35b34801561013157600080fd5b5061014c600480360381019061014791906105ee565b610223565b6040516101599190610517565b60405180910390f35b34801561016e57600080fd5b50610177610276565b6040516101849190610636565b60405180910390f35b34801561019957600080fd5b506101a2610287565b6040516101af9190610517565b60405180910390f35b3480156101c457600080fd5b506101cd610292565b6040516101da9190610517565b60405180910390f35b6101eb61029c565b005b60015481565b60036020528060005260406000206000915090505481565b60026020528060005260406000206000915090505481565b6000806000600154148061023e575082670de0b6b3a7640000145b1561025357670de0b6b3a76400009050610262565b61025f60015484610445565b90505b61026e81600154610481565b915050919050565b60008054906101000a900460ff1681565b66071afd498d000081565b6000600154905090565b60008054906101000a900460ff16156102ea576040517f08c379a00000000000000000000000000000000000000000000000000000000081526004016102e1906106d4565b60405180910390fd5b66071afd498d0000341015610334576040517f08c379a000000000000000000000000000000000000000000000000000000000815260040161032b90610740565b60405180910390fd5b60006103403447610445565b9050600061034d82610223565b905080600260003373ffffffffffffffffffffffffffffffffffffffff1673ffffffffffffffffffffffffffffffffffffffff1681526020019081526020016000205461039a919061078f565b600260003373ffffffffffffffffffffffffffffffffffffffff1673ffffffffffffffffffffffffffffffffffffffff16815260200190815260200160002081905550806001546103eb919061078f565b6001819055503373ffffffffffffffffffffffffffffffffffffffff167f4da600077ef1c533c6fc47d886b74f8eb10195c987edfc00c907a2e184a0279434836040516104399291906107e5565b60405180910390a25050565b60008161046f61045d85670de0b6b3a76400006104a4565b60028561046a919061083d565b6104db565b610479919061083d565b905092915050565b6000828284610490919061086e565b915081111561049e57600080fd5b92915050565b6000808214806104cc5750828283856104bd91906108a2565b9250826104ca919061083d565b145b6104d557600080fd5b92915050565b60008282846104ea919061078f565b91508110156104f857600080fd5b92915050565b6000819050919050565b610511816104fe565b82525050565b600060208201905061052c6000830184610508565b92915050565b600080fd5b600073ffffffffffffffffffffffffffffffffffffffff82169050919050565b600061056282610537565b9050919050565b61057281610557565b811461057d57600080fd5b50565b60008135905061058f81610569565b92915050565b6000602082840312156105ab576105aa610532565b5b60006105b984828501610580565b91505092915050565b6105cb816104fe565b81146105d657600080fd5b50565b6000813590506105e8816105c2565b92915050565b60006020828403121561060457610603610532565b5b6000610612848285016105d9565b91505092915050565b60008115159050919050565b6106308161061b565b82525050565b600060208201905061064b6000830184610627565b92915050565b600082825260208201905092915050565b7f506f6f6c206973206c6f636b6564207768696c65206c6f616e2069732061637460008201527f6976650000000000000000000000000000000000000000000000000000000000602082015250565b60006106be602383610651565b91506106c982610662565b604082019050919050565b600060208201905081810360008301526106ed816106b1565b9050919050565b7f4e6f7420656e6f7567682045544820746f20616464206c697175696469747900600082015250565b600061072a601f83610651565b9150610735826106f4565b602082019050919050565b600060208201905081810360008301526107598161071d565b9050919050565b7f4e487b7100000000000000000000000000000000000000000000000000000000600052601160045260246000fd5b600061079a826104fe565b91506107a5836104fe565b9250827fffffffffffffffffffffffffffffffffffffffffffffffffffffffffffffffff038211156107da576107d9610760565b5b828201905092915050565b60006040820190506107fa6000830185610508565b6108076020830184610508565b9392505050565b7f4e487b7100000000000000000000000000000000000000000000000000000000600052601260045260246000fd5b6000610848826104fe565b9150610853836104fe565b9250826108635761086261080e565b5b828204905092915050565b6000610879826104fe565b9150610884836104fe565b92508282101561089757610896610760565b5b828203905092915050565b60006108ad826104fe565b91506108b8836104fe565b9250817fffffffffffffffffffffffffffffffffffffffffffffffffffffffffffffffff04831182151516156108f1576108f0610760565b5b82820290509291505056fea2646970667358221220691a55c7c063a047c8ae5375553e77b912673330fce2e4d55718734004580b9064736f6c634300080b0033",
  "immutableReferences": {},
  "source": "pragma solidity >=0.5.0;\n\ncontract LiquidityPool {\n    bool public isLocked;\n    uint256 public constant FEE = 2 * 10**15;\n    uint256 public shares;\n    uint256 constant PRECISION = 10**18;\n\n    mapping(address => uint256) public providerShares;\n    mapping(address => uint256) public borrowerDebt;\n\n    modifier lockPool() {\n        require(!isLocked, \"Pool is locked while loan is active\");\n        _;\n    }\n\n    event LiquidityProvided(\n        address indexed provider,\n        uint256 amountAdded,\n        uint256 sharesCreated\n    );\n\n    event LiquidityRemove(\n        address indexed provider,\n        uint256 amountRemoved,\n        uint256 sharesRemoved\n    );\n\n    event LoanCompleted(address indexed borrower, uint256 amountRepaid);\n\n    event LoanRepayed(\n        address indexed borrower,\n        address indexed payee,\n        uint256 amountRepaid\n    );\n\n    function addLiquidity() external payable lockPool {\n        require(msg.value >= FEE, \"Not enough ETH to add liquidity\");\n        uint256 proportion = wdiv(msg.value, address(this).balance);\n        uint256 sharesAdded = sharesAfterDeposit(proportion);\n        providerShares[msg.sender] = providerShares[msg.sender] + sharesAdded;\n        shares = shares + sharesAdded;\n\n        emit LiquidityProvided(msg.sender, msg.value, sharesAdded);\n    }\n\n    function getShares() external view returns (uint256) {\n        return shares;\n    }\n\n    function sharesAfterDeposit(uint256 _liquidityProportion)\n        public\n        view\n        returns (uint256 _shares)\n    {\n        uint256 newshares;\n\n        if (shares == 0 || PRECISION == _liquidityProportion) {\n            newshares = PRECISION;\n        } else {\n            newshares = wdiv(shares, _liquidityProportion);\n        }\n\n        _shares = sub(newshares, shares);\n    }\n\n    function wdiv(uint256 x, uint256 y) internal pure returns (uint256 z) {\n        z = add(mul(x, PRECISION), y / 2) / y;\n    }\n\n    function add(uint256 x, uint256 y) internal pure returns (uint256 z) {\n        require((z = x + y) >= x);\n    }\n\n    function sub(uint256 x, uint256 y) internal pure returns (uint256 z) {\n        require((z = x - y) <= x);\n    }\n\n    function mul(uint256 x, uint256 y) internal pure returns (uint256 z) {\n        require(y == 0 || (z = x * y) / y == x);\n    }\n}\n",
  "sourcePath": "/Users/traviswickham/Development/next-dapp/contracts/LiquidityPool.sol",
  "compiler": {
    "name": "solc",
    "version": "0.8.11+commit.d7f03943.Emscripten.clang"
  },
  "schemaVersion": "3.4.3",
  "updatedAt": "2021-12-30T16:49:57.102Z",
  "devdoc": {
    "kind": "dev",
    "methods": {},
    "version": 1
  },
  "userdoc": {
    "kind": "user",
    "methods": {},
    "version": 1
  }
}